{
  "contractName": "LunaSphereSale",
  "abi": [
    {
      "inputs": [
        {
          "internalType": "address",
          "name": "_tokenaddress",
          "type": "address"
        },
        {
          "internalType": "uint256",
          "name": "_tokenvalue",
          "type": "uint256"
        }
      ],
      "payable": false,
      "stateMutability": "nonpayable",
      "type": "constructor"
    },
    {
      "anonymous": false,
      "inputs": [
        {
          "indexed": false,
          "internalType": "address",
          "name": "sender",
          "type": "address"
        },
        {
          "indexed": false,
          "internalType": "uint256",
          "name": "totalvalue",
          "type": "uint256"
        }
      ],
      "name": "Sell",
      "type": "event"
    },
    {
      "constant": true,
      "inputs": [],
      "name": "admin",
      "outputs": [
        {
          "internalType": "address payable",
          "name": "",
          "type": "address"
        }
      ],
      "payable": false,
      "stateMutability": "view",
      "type": "function"
    },
    {
      "constant": true,
      "inputs": [],
      "name": "lunasphere",
      "outputs": [
        {
          "internalType": "contract LunaSphere",
          "name": "",
          "type": "address"
        }
      ],
      "payable": false,
      "stateMutability": "view",
      "type": "function"
    },
    {
      "constant": true,
      "inputs": [],
      "name": "tokenprice",
      "outputs": [
        {
          "internalType": "uint256",
          "name": "",
          "type": "uint256"
        }
      ],
      "payable": false,
      "stateMutability": "view",
      "type": "function"
    },
    {
      "constant": true,
      "inputs": [],
      "name": "totalsold",
      "outputs": [
        {
          "internalType": "uint256",
          "name": "",
          "type": "uint256"
        }
      ],
      "payable": false,
      "stateMutability": "view",
      "type": "function"
    },
    {
      "constant": false,
      "inputs": [],
      "name": "buyTokens",
      "outputs": [],
      "payable": true,
      "stateMutability": "payable",
      "type": "function"
    },
    {
      "constant": false,
      "inputs": [],
      "name": "endsale",
      "outputs": [],
      "payable": false,
      "stateMutability": "nonpayable",
      "type": "function"
    }
  ],
  "bytecode": "0x608060405234801561001057600080fd5b5060405161087e38038061087e8339818101604052604081101561003357600080fd5b810190808051906020019092919080519060200190929190505050336000806101000a81548173ffffffffffffffffffffffffffffffffffffffff021916908373ffffffffffffffffffffffffffffffffffffffff1602179055508060028190555081600160006101000a81548173ffffffffffffffffffffffffffffffffffffffff021916908373ffffffffffffffffffffffffffffffffffffffff1602179055505050610797806100e76000396000f3fe6080604052600436106100555760003560e01c80638bf5cfe41461005a578063a3525848146100b1578063c8b335a4146100dc578063d0bd4c73146100f3578063d0febe4c1461011e578063f851a44014610128575b600080fd5b34801561006657600080fd5b5061006f61017f565b604051808273ffffffffffffffffffffffffffffffffffffffff1673ffffffffffffffffffffffffffffffffffffffff16815260200191505060405180910390f35b3480156100bd57600080fd5b506100c66101a5565b6040518082815260200191505060405180910390f35b3480156100e857600080fd5b506100f16101ab565b005b3480156100ff57600080fd5b50610108610465565b6040518082815260200191505060405180910390f35b61012661046b565b005b34801561013457600080fd5b5061013d61070f565b604051808273ffffffffffffffffffffffffffffffffffffffff1673ffffffffffffffffffffffffffffffffffffffff16815260200191505060405180910390f35b600160009054906101000a900473ffffffffffffffffffffffffffffffffffffffff1681565b60035481565b6000809054906101000a900473ffffffffffffffffffffffffffffffffffffffff1673ffffffffffffffffffffffffffffffffffffffff163373ffffffffffffffffffffffffffffffffffffffff161461026d576040517f08c379a00000000000000000000000000000000000000000000000000000000081526004018080602001828103825260168152602001807f20796f7520617265206e6f74207468652061646d696e0000000000000000000081525060200191505060405180910390fd5b600160009054906101000a900473ffffffffffffffffffffffffffffffffffffffff1673ffffffffffffffffffffffffffffffffffffffff1663a9059cbb33600160009054906101000a900473ffffffffffffffffffffffffffffffffffffffff1673ffffffffffffffffffffffffffffffffffffffff166370a08231306040518263ffffffff1660e01b8152600401808273ffffffffffffffffffffffffffffffffffffffff1673ffffffffffffffffffffffffffffffffffffffff16815260200191505060206040518083038186803b15801561034b57600080fd5b505afa15801561035f573d6000803e3d6000fd5b505050506040513d602081101561037557600080fd5b81019080805190602001909291905050506040518363ffffffff1660e01b8152600401808373ffffffffffffffffffffffffffffffffffffffff1673ffffffffffffffffffffffffffffffffffffffff16815260200182815260200192505050602060405180830381600087803b1580156103ef57600080fd5b505af1158015610403573d6000803e3d6000fd5b505050506040513d602081101561041957600080fd5b8101908080519060200190929190505050506000809054906101000a900473ffffffffffffffffffffffffffffffffffffffff1673ffffffffffffffffffffffffffffffffffffffff16ff5b60025481565b6002543402600160009054906101000a900473ffffffffffffffffffffffffffffffffffffffff1673ffffffffffffffffffffffffffffffffffffffff166370a08231306040518263ffffffff1660e01b8152600401808273ffffffffffffffffffffffffffffffffffffffff1673ffffffffffffffffffffffffffffffffffffffff16815260200191505060206040518083038186803b15801561050f57600080fd5b505afa158015610523573d6000803e3d6000fd5b505050506040513d602081101561053957600080fd5b810190808051906020019092919050505010156105a1576040517f08c379a000000000000000000000000000000000000000000000000000000000815260040180806020018281038252602e815260200180610735602e913960400191505060405180910390fd5b600160009054906101000a900473ffffffffffffffffffffffffffffffffffffffff1673ffffffffffffffffffffffffffffffffffffffff1663a9059cbb3360025434026040518363ffffffff1660e01b8152600401808373ffffffffffffffffffffffffffffffffffffffff1673ffffffffffffffffffffffffffffffffffffffff16815260200182815260200192505050602060405180830381600087803b15801561064e57600080fd5b505af1158015610662573d6000803e3d6000fd5b505050506040513d602081101561067857600080fd5b81019080805190602001909291905050505060025434026003600082825401925050819055507f5e5e995ce3133561afceaa51a9a154d5db228cd7525d34df5185582c18d3df09336002543402604051808373ffffffffffffffffffffffffffffffffffffffff1673ffffffffffffffffffffffffffffffffffffffff1681526020018281526020019250505060405180910390a1565b6000809054906101000a900473ffffffffffffffffffffffffffffffffffffffff168156fe74686520736d61727420636f6e747261637420646f6e7420686f6c642074686520656e6f75676820746f6b656e73a265627a7a72315820f28adaf0b152ba1140cf67f5da3fd1a8ca2cd14fe19cbfd2db9efeac42d95eea64736f6c63430005100032",
  "source": "pragma solidity >=0.4.22 <0.9.0;\r\n\r\nimport './LunaSphere.sol';\r\n\r\ncontract LunaSphereSale {\r\n    \r\n    // address of admin\r\n    address payable public  admin;\r\n    // define the instance of DevToken\r\n    LunaSphere public lunasphere;\r\n    // token price variable\r\n    uint256 public tokenprice;\r\n    // count of token sold vaariable\r\n    uint256 public totalsold; \r\n     \r\n    event Sell(address sender,uint256 totalvalue); \r\n   \r\n    // constructor \r\n    constructor(address _tokenaddress,uint256 _tokenvalue) public {\r\n        admin  = msg.sender;\r\n        tokenprice = _tokenvalue;\r\n        lunasphere  = LunaSphere(_tokenaddress);\r\n    }\r\n   \r\n    // buyTokens function\r\n    function buyTokens() public payable{\r\n    // check if the contract has the tokens or not\r\n    require(lunasphere.balanceOf(address(this)) >= msg.value*tokenprice,'the smart contract dont hold the enough tokens');\r\n    // transfer the token to the user\r\n    lunasphere.transfer(msg.sender,msg.value*tokenprice);\r\n    // increase the token sold\r\n    totalsold += msg.value*tokenprice;\r\n    // emit sell event for ui\r\n     emit Sell(msg.sender, msg.value*tokenprice);\r\n    }\r\n\r\n    // end sale\r\n    function endsale() public{\r\n    // check if admin has clicked the function\r\n    require(msg.sender == admin , ' you are not the admin');\r\n    // transfer all the remaining tokens to admin\r\n    lunasphere.transfer(msg.sender,lunasphere.balanceOf(address(this)));\r\n    // transfer all the etherum to admin and self selfdestruct the contract\r\n    selfdestruct(admin);\r\n    }\r\n        \r\n    }\r\n",
  "sourcePath": "D:/Projects/GitHub/LunaSphere/contracts/LunaSphereSale.sol",
  "compiler": {
    "name": "solc",
    "version": "0.5.16+commit.9c3226ce.Emscripten.clang"
  },
  "schemaVersion": "3.4.1",
  "updatedAt": "2021-08-29T14:18:19.984Z",
  "devdoc": {
    "methods": {}
  },
  "userdoc": {
    "methods": {}
  }
}